:02000000CC2E04
:10000800F000030E83120313A0000A08A1008A015E
:100018000408A2000B1D18288B1E1828E90A0319CA
:10002800EA0AFA3081000B11831203130C1E2E28E2
:1000380083160C1E2E280A160B230A12031C2B28C3
:100048000A1615230A128312031399002E28831601
:1000580003130C12831203138C1E462883168C1E5E
:1000680046288312981C3B28181218164628831213
:1000780003131A08A300A3080319462823080A161D
:10008800E9220A12831203132208840021088A0035
:0A009800200E8300F00E700E090028
:1000A20083120313CF01D001D101D2014E10CE1021
:1000B200080083120313AB01AC0183132A088400E6
:1000C2000008AD00AE012D30B1000A1632210A122D
:1000D200831203134D0A2D02031C7128031DC62827
:1000E2009030831203132D078400831700080A1629
:1000F20004210A1283120313AB00AD0A90302D07BC
:100102008400831700080A1604210A1283120313BB
:10011200AC00AD0A2B08413A031D96282C085A3A26
:10012200031D96280130AE00BC28831203132B084E
:10013200453A031DA3282C084C3A031DA32802307C
:10014200AE00BC28831203132B08553A031DB028B6
:100152002C08503A031DB0280330AE00BC2883128D
:1001620003132B08443A031DBC282C084E3A031DE6
:10017200BC280430AE0083120313AE080319C6284C
:1001820083132A0884002D088000831203132E088B
:100192000800831203132F0FD22830087F3A031965
:1001A200422983120313DD1CEC28B01BDF28300820
:1001B200031DE628B4302F020318E628B430831258
:1001C2000313AF070318B00AEC28B43083120313E9
:1001D200AF02031CB003831203132F08CF003008B1
:1001E200D00000300A165E220A1283120313350869
:1001F200AF003608B0002F08B3003008B4008A15EB
:100202000A1681228A110A12831203133D08AF00D3
:100212003E08B00050083002031917295008300672
:100222000318803A803903191D29232983120313E5
:100232004F082F0203182329831203138714071070
:100242004E14422983120313300850020319312934
:10025200500830060318803A8039031937293D299E
:10026200831203132F084F0203183D29831203132D
:10027200071487104E1442298312031307108710A4
:100282004E1083120313310F4A2932087F3A0319A1
:10029200BC2983120313CE143108D1003208D200D4
:1002A20001300A165E220A12831203133508B100C6
:1002B2003608B2005C08B2025B08B102031CB2034A
:1002C2003108C1003208C200C301C21BC3038A1530
:1002D2000A16CE218A110A12831203135808C40087
:1002E2005908C5005A08C6008A150A1669208A11DB
:1002F2000A128A150A161E228A110A12831203137F
:100302004108B1004208B200520832020319912991
:10031200520832060318803A8039031997299D2919
:10032200831203135108310203189D298312031308
:1003320087150711CE14BC29831203133208520207
:100342000319AB29520832060318803A803903197F
:10035200B129B72983120313310851020318B729AF
:100362008312031307158711CE14BC2983120313BA
:1003720007118711CE1008000A16C8220A12031CA0
:10038200CB2E0A16D2220A1283120313A6002608C3
:100392000A3A0319D02926080D3A031DBD2E8312ED
:1003A2000313A7012730AA005A2083120313A800BF
:1003B200A80803198D2A83120313A8080319B92E5A
:1003C20029102808013A0319F029033A0319F029E0
:1003D200013A0319312A073A0319312A762A2730BA
:1003E20083120313B1000A1632210A122730831234
:1003F2000313B1002A30B2000A16C5210A120318EB
:10040200062A831203132914792A831203132A0852
:10041200C1002B08C2002C08C3008A150A161E222E
:100422008A110A12831203134108AD004208AE007A
:10043200280B252A2D08AF002E08B000FF30B1008E
:100442007F30B200CA20792AFF3083120313AF0033
:100452007F30B0002D08B1002E08B200CA20792AE0
:1004620083120313B0012730B1000A1632210A1297
:10047200273083120313B1002A30B2000A16C521B5
:100482000A120318482A831203132914792A2730DF
:1004920083120313B1000A1632210A1283120313C4
:1004A2004D0827020318682A033030020318682A0D
:1004B20090302707840083170008B100A70A2D3067
:1004C20030078400831331088000B00A4F2A0330BA
:1004D2008312031330020318792A2D303007840067
:1004E200831320308000B00A682A83120313291470
:1004F20083120313291C842A0A16C2240A128312A5
:100502000313A801DC29273083120313AA005A20FF
:1005120083120313A800DC29831203134D08270258
:100522000318A72A903027078400831700080A16A9
:1005320004210A1283120313A600A70A2608203AEE
:1005420003198D2A2608093A03198D2A83120313E7
:1005520027084D02031CB92E2608463A0319BE2A63
:10056200153A0319D22D103A0319DB2D143A031947
:10057200782E1A3A0319782EB62E831203134D08D9
:1005820027020318CE2D9030270784008317000816
:100592000A1604210A1283120313A900A70A2908C2
:1005A200573A031DED2A0A1699260A12031CE32A5A
:1005B200533083120313AE000130AF000A16A22497
:1005C2000A12B92E653083120313AE000130AF0058
:1005D2000A16A2240A12B92E831203132908533AC7
:1005E200031DFC2ADD147530AE000130AF000A167F
:1005F200A2240A12B92E8312031329084E3A031DAC
:100602000B2BDD108230AE000130AF000A16A2249F
:100612000A12B92E831203134D0827020318CE2D96
:10062200903027078400831700080A1604210A1253
:1006320083120313AA00A70A2908413A031D582B63
:100642002A084F3A031D582B2730B1000A163221CF
:100652000A12273083120313BC002B30BD000A1686
:1006620067210A12031C582B831203132B08D6008E
:100672002C08D70051208F3083120313AE000130B3
:10068200AF000A16A2240A12831203135608B400FA
:100692005708B5000A1650230A1262308312031358
:1006A200AE000130AF000A16A2240A12B92E83123C
:1006B20003132908413A031D992B2A084D3A031DB9
:1006C200992B2730B1000A1632210A1227308312E1
:1006D2000313B1002B30B2000A16C5210A12031C03
:1006E200992B831203132B08D3002C08D4002D0856
:1006F200D5005120A23083120313AE000130AF00A7
:100702000A16A2240A12831203135308AE005408D5
:10071200AF005508B0000A162D240A126230831267
:100722000313AE000130AF000A16A2240A12B92E3A
:10073200831203132908413A031DCA2B2A08533A8C
:10074200031DCA2B00300A165E220A1283120313FB
:100752003508D6003608D70051209730831203138C
:10076200AE000130AF000A16A2240A12831203134C
:100772005608B4005708B5000A1650230A12623010
:1007820083120313AE000130AF000A16A2240A122C
:10079200B92E831203132908413A031D202C2A087B
:1007A200453A031D202C00300A165E220A128312DB
:1007B20003133508AB003608AC00C30157082C02FE
:1007C200C20056082B02C100031CC2038A150A1676
:1007D200CE218A110A1283120313C4013430C500D8
:1007E2008730C6008A150A1669208A110A128312F6
:1007F20003134108D3004208D4004308D5005D101A
:100802005120A23083120313AE000130AF000A164A
:10081200A2240A12831203135308AE005408AF0035
:100822005508B0000A162D240A12623083120313EF
:10083200AE000130AF000A16A2240A12B92E8312AA
:1008420003132908413A031D762C2A08463A031D50
:10085200762C00300A165E220A1283120313350820
:10086200AB003608AC00C30157082C02C200560880
:100872002B02C100031CC2038A150A16CE218A115B
:100882000A1283120313C4016130C5008730C60007
:100892008A150A1669208A110A1283120313410863
:1008A200D3004208D4004308D5005D145120A23081
:1008B20083120313AE000130AF000A16A2240A12FB
:1008C200831203135308AE005408AF005508B0005A
:1008D2000A162D240A12623083120313AE0001306D
:1008E200AF000A16A2240A12B92E83120313290892
:1008F200453A031DB32C2A084F3A031DB32C273067
:10090200B1000A1632210A12273083120313BC00E7
:100912002B30BD000A1667210A12031CB32C831266
:1009220003132B08DB002C08DC005120AA308312B1
:100932000313AE000130AF000A16A2240A1283127A
:1009420003135B08B4005C08B5000A1650230A12B0
:10095200623083120313AE000130AF000A16A224E4
:100962000A12B92E831203132908453A031DF42CE7
:100972002A084D3A031DF42C2730B1000A16322101
:100982000A12273083120313B1002B30B2000A1669
:10099200C5210A12031CF42C831203132B08D8005E
:1009A2002C08D9002D08DA005120BD308312031320
:1009B200AE000130AF000A16A2240A1283120313FA
:1009C2005808AE005908AF005A08B0000A162D2484
:1009D2000A12623083120313AE000130AF000A160E
:1009E200A2240A12B92E831203132908453A031DC1
:1009F200252D2A08533A031D252D01300A165E22A1
:100A02000A12831203133508DB003608DC0051207A
:100A1200B23083120313AE000130AF000A16A224D3
:100A22000A12831203135B08B4005C08B5000A16AD
:100A320050230A12623083120313AE000130AF005A
:100A42000A16A2240A12B92E831203132908453A60
:100A5200031D7A2D2A08453A031D7A2D01300A1604
:100A62005E220A12831203133508AB003608AC006B
:100A7200C3015C082C02C2005B082B02C100031CEC
:100A8200C2038A150A16CE218A110A12831203138F
:100A9200C4013430C5008630C6008A150A166920A2
:100AA2008A110A12831203134108D8004208D9009E
:100AB2004308DA005120BD3083120313AE00013027
:100AC200AF000A16A2240A12831203135808AE00BA
:100AD2005908AF005A08B0000A162D240A126230D3
:100AE20083120313AE000130AF000A16A2240A12C9
:100AF200B92E831203132908453A031DCE2D2A0865
:100B02004E3A031DCE2D01300A165E220A128312BE
:100B120003133508AB003608AC00C3015C082C0295
:100B2200C2005B082B02C100031CC2038A150A160D
:100B3200CE218A110A1283120313C4013430C50074
:100B42008530C6008A150A1669208A110A12831294
:100B520003134108D8004208D9004308DA005120A3
:100B6200BD3083120313AE000130AF000A16A22477
:100B72000A12831203135808AE005908AF005A082C
:100B8200B0000A162D240A12623083120313AE003B
:100B92000130AF000A16A2240A120A16C2240A124F
:100BA200B92E831203134E10CE100710871087112F
:100BB2000711B92E831203134D0827020318E72DDC
:100BC20090302707840083170008A60000300A1619
:100BD2005E220A12831203133508A9003608AA00FE
:100BE2002908B3002A08B4008A150A1681228A113C
:100BF2000A12831203133D08A9003E08AA00DD1C55
:100C0200252EAA1B0B2E2A08031D182EB4302902EA
:100C12000318182E831203132A08AE00B4302907D2
:100C2200AD000318AE0A0A1615240A122E2E8312DC
:100C320003132A08AE00B4302902AD00031CAE0330
:100C42000A1615240A122E2E831203132908AD0048
:100C52002A08AE000A1615240A1283120313260864
:100C6200323A031D6F2E01300A165E220A128312D7
:100C720003133508AB003608AC005C08AC025B0815
:100C8200AB02031CAC032B08C1002C08C200C30139
:100C9200C21BC3038A150A16CE218A110A128312B5
:100CA20003135808C4005908C5005A08C6008A151B
:100CB2000A1669208A110A128A150A161E228A1138
:100CC2000A12831203134108AB004208AC002B083E
:100CD200AD002C08AE000A1615240A120D300A16B1
:100CE2002C230A120A300A162C230A12B92EFF30BC
:100CF20083120313A9007F30AA00FF30AB007F30BC
:100D0200AC002730B1000A1632210A1227308312B2
:100D12000313BC002930BD000A1667210A1203180A
:100D2200962E0A16C2240A12B92E8312031326081B
:100D3200573A031DAA2E2730B1000A1632210A1291
:100D4200273083120313BC002B30BD000A16672123
:100D52000A12831203132908AF002A08B0002B08D5
:100D6200B1002C08B200CA20B92E0A16C2240A12F7
:100D720083120313CD01BD293C30831203134D02AC
:100D82000318BD2990304D07840083172608800080
:100D9200CD0ABD290800403083160313860088302F
:100DA20083128600CB01FF30831685001F109F142B
:100DB2001F159F118312E901EA01831681110114A3
:100DC2008114011581128B160A16CA240A120A16F8
:100DD200CF240A121930831603139900181518121A
:100DE200181383121813981783169816831218165D
:100DF2008316871707130C128C160B170710871010
:100E020007118711831207108710071187118A159E
:100E12000A16B8238A110A128A150A167C258A1123
:100E22000A120A169A250A12512083120313CD01BF
:100E32008B178A155E218A110F308A1554208A1168
:100E4200BD218A150A16A62D8A158B208A111D2FFF
:1010000083120313861100000508BC008615031027
:10101000BC0C0310BC0C0F30BC050F30BC063C08E8
:101020000800002083120313B4008A110A16282135
:101030008A150A12831203133D08B5003E08B60054
:101040003408B7003508B8003608B900002083120C
:101050000313B7008A110A1628218A150A1283126F
:1010600003133D08B8003E08B900370834060319D9
:101070003F283708B4003808B5003908B600831295
:10108000031336083902BB0035083802BA00031CC6
:10109000BB033B08031D502805303A02031C2628D9
:1010A000831203133708080083120313B2001120C0
:1010B00083120313CB004C084B06B300B30803198B
:1010C000872803303305320503197128071087106C
:1010D0004E104B1C6D280714712883120313CB1874
:1010E00087140C3083120313330532050319832848
:1010F00007118711CE104B1D7F28071583288312F7
:101100000313CB198715831203134B08CC008312EA
:1011100003134B080800831203134E1CDB28003016
:101120008A110A165E228A150A12831203133508E1
:10113000A6003608A7002608B3002708B4000A1640
:1011400081220A12831203133D08A6003E08A7005D
:10115000270850020319B428500827060318803ABC
:1011600080390319BE28BA288312031326084F02B8
:10117000031CBE28831203130718D62883120313F7
:10118000500827020319CC28500827060318803A74
:1011900080390319DB28D228831203134F08260253
:1011A000031CDB2883120313871CDB288312031321
:1011B000071087104E1083120313CE1C42290130F2
:1011C0008A110A165E228A150A1283120313350841
:1011D000A6003608A7005C08A7025B08A602031C4D
:1011E000A7032608C1002708C200C301C21BC3030E
:1011F0000A16CE210A12831203135808C400590894
:10120000C5005A08C6000A1669200A120A161E22CC
:101210000A12831203134108A6004208A7002708F8
:10122000520203191B29520827060318803A8039F5
:101230000319252921298312031326085102031CAF
:1012400025298312031307193D298312031352081A
:10125000270203193329520827060318803A8039D8
:101260000319422939298312031351082602031C4A
:10127000422983120313871D422983120313071186
:101280008711CE10080083120313B00083120313DA
:101290003008542083120313B10030093105031DB7
:1012A0004629831203133008542083120313B1001C
:1012B000300931050319512931080800831203133D
:1012C0004E1D642C1120003A0319642C8312031361
:1012D000AF102F11AF110A16B1230A123F3083123B
:1012E0000313B000B1010A162B250A1228300A1682
:1012F000A8230A127D3083120313B000B1010A162D
:101300002B250A120330432183120313A600A619CA
:10131000080000308A110A165E228A150A1283120A
:1013200003133508A7003608A8002708DF0028089F
:10133000E0000A16B1230A124A3083120313B000E8
:10134000B1010A162B250A1228300A16A8230A1200
:101350007D3083120313B000B1010A162B250A1247
:101360000330432183120313A600A619080000309E
:101370008A110A165E228A150A128312031335088F
:10138000E1003608E200C30160086202C2005F08A3
:101390006102C100031CC2030A16CE210A12831285
:1013A0000313C4013430C5008530C6000A16692015
:1013B0000A12831203134108F1004208F2004308A5
:1013C000F3000A16B1230A12563083120313B00039
:1013D000B1010A162B250A1228300A16A8230A1270
:1013E0007D3083120313B000B1010A162B250A12B7
:1013F0000330432183120313A600A619080000300E
:101400008A110A165E228A150A12831203133508FE
:10141000E3003608E400C30162086402C200610808
:101420006302C100031CC2030A16CE210A128312F2
:101430000313C4013430C5008530C6000A16692084
:101440000A12831203134108F4004208F50043080E
:10145000F6000A16B1230A12633083120313B00098
:10146000B1010A162B250A1228300A16A8230A12DF
:101470007D3083120313B000B1010A162B250A1226
:101480000330432183120313A600A619080000307D
:101490008A110A165E228A150A128312031335086E
:1014A000E5003608E600C30164086602C20063086E
:1014B0006502C100031CC2030A16CE210A12831260
:1014C0000313C4013430C5008530C6000A166920F4
:1014D0000A12831203134108F7004208F800430878
:1014E000F9000A16B1230A12703083120313B000F8
:1014F000B1010A162B250A1228300A16A8230A124F
:101500007D3083120313B000B1010A162B250A1295
:101510000330432183120313A600A61908000030EC
:101520008A110A165E228A150A12831203133508DD
:10153000E7003608E800C30166086802C2006508D3
:101540006702C100031CC2030A16CE210A128312CD
:101550000313C4013430C5008530C6000A16692063
:101560000A12831203134108FA004208FB004308E1
:10157000FC006708A9006808AA00FD01FE01FF0140
:101580000A16B1230A128D3083120313B000B10181
:101590000A162B250A1228300A16A8230A12A73089
:1015A00083120313B000B1010A162B250A120C3066
:1015B000432183120313A600A618080001308A11E4
:1015C0000A165E228A150A12831203133508AB002D
:1015D0003608AC000A16B1230A129A30831203139C
:1015E000B000B1010A162B250A1228300A16A823CA
:1015F0000A12A73083120313B000B1010A162B257B
:101600000A120C30432183120313A600A618080007
:1016100001308A110A165E228A150A1283120313F8
:101620003508AD003608AE000A16B1230A12B730ED
:1016300083120313B000B1010A162B250A122830B9
:101640000A16A8230A12C73083120313B000B1018F
:101650000A162B250A120030432183120313A60019
:10166000A618080083120313A619AF140A16B12393
:101670000A12D53083120313B000B1010A162B25CC
:101680000A1228300A16A8230A12E630831203131E
:10169000B000B1010A162B250A1200304321831233
:1016A0000313A600A618080083120313A6192F150A
:1016B0000A16B1230A12F63083120313B000B101E7
:1016C0000A162B250A1228300A16A8230A120730F8
:1016D00083120313B0000130B1000A162B250A1241
:1016E0000030432183120313A600A61808008312BA
:1016F00003132619AF150A16B1230A1217308312E5
:101700000313B0000130B1000A162B250A1228304D
:101710000A16A8230A12AF3083120313B000B101D6
:101720000A162B250A120030432183120313A60048
:10173000A618080083120313A61D642CDD10AF1930
:10174000DD145D10AF185D142708D6002808D700F7
:101750002B08DB002C08DC00C30128082A02C20089
:1017600027082902C100031CC2030A16CE210A124F
:10177000831203134108D3004208D4004308D50064
:10178000AF1CD92B5308C1005408C2005508C30030
:10179000C4016130C5008730C6000A1669200A12EC
:1017A000831203134108D3004208D4004308D50034
:1017B000F12B831203135308C1005408C2005508CB
:1017C000C300C4013430C5008730C6000A16692042
:1017D0000A12831203134108D3004208D4004308BD
:1017E000D50083120313C3012C082E02C2002B085C
:1017F0002D02C100031CC2030A16CE210A12831255
:1018000003134108D8004208D9004308DA002F1D0D
:10181000202C5808C1005908C2005A08C300C4014E
:101820003430C5008530C6000A1669200A128312BA
:1018300003134108D8004208D9004308DA00382CC5
:10184000831203135808C1005908C2005A08C30084
:10185000C4013430C5008630C6000A1669200A1259
:10186000831203134108D8004208D9004308DA0064
:101870000A16B1230A128A110A1699268A150A1223
:10188000031C4C2C233083120313B0000130B10031
:101890000A162B250A12552C333083120313B0007D
:1018A0000130B1000A162B250A1228300A16A82387
:1018B0000A12423083120313B0000130B1000A163D
:0A18C0002B250A120030432908000E
:1020000083120313330C103E03178F000313330C9A
:10201000320C213E03178D0003188F0A8316031715
:102020008C170C14000000008312031332181C28B4
:1020300003170C087F390800831203170C0D0E0DCF
:1020400008004C2B42105439E131EB327200C63497
:10205000F236F730F232203B31173200413D20009A
:10206000453620002014802B6139EE34EE333A10CF
:10207000E2306400C5225029CF262032613A611730
:102080008029653AA020FA1E30102600D332741041
:10209000413DBD1C30102600D3327410413DBD18A7
:1020A000381820138029653AA020FA1EB21B301080
:1020B0002600D3327410413DBD1936182013003864
:1020C000F232F33920222014D51EE539E314802999
:1020D000653AA022EC1EED346E102600D332741047
:1020E0004536BD36613C20130038F232F3392026E4
:1020F0002014D21EE539E31480207A10F230EE333A
:10210000651D201A3518A02A80193618202220149F
:10211000D21EE539E31480226C10F230EE33651DD7
:102120002018AD1C30105500B016311C3010441072
:102130002829BD32F3312900C3215710733A6F3873
:1021400020276F397434BD2A8029EF3A74343D2238
:102150002014D21EE539E314802245105739693A1C
:10216000651DA02A80224528D2274D107739693A6B
:102170006510CF2580224528D2274D10E6306936DC
:1021800065322100D03A733420317437203A6F1011
:10219000653C693A80224528D2274D107739693A43
:1021A0006510CF250D0580224528D2274D10E63039
:1021B000693665320D058029EF3A7434A039F43759
:1021C000F0060A00CE37723A6810733A6F380D0580
:1021D00080207A106F33E61E80207A104F33E63964
:1021E000653A3D00413DA03675363D004536A03785
:1021F00066333D004536A0276633F332F41E802255
:102200006C10ED3AEC1E000083120313AF00613036
:102210002F02031C11297B302F02031811292030B3
:10222000AF02831203132F08080083120313B900AF
:1022300083120313B90803192729B903BA010D3012
:10224000831203133A0203181829BA0A1F29080037
:102250008B13831203136908BD006A08BE008B1735
:102260003D080800831203133410B410831331089F
:1022700084000008B2008312031334185C294D084F
:10228000320203185829903032078400831700085F
:10229000B3003308203A031953293308093A0319C4
:1022A000532934143B2983120313B414B20A3B2973
:1022B0008312031334143B2983138312031331084D
:1022C0008400320880000310B4180314080083123D
:1022D00003134210C21083133C0884000008BE00A0
:1022E000C001C101831203134218AE294D083E02FA
:1022F0000318AA2990303E07840083170008BF0006
:1023000030303F02031C88293A303F02031C8C29DD
:10231000831203134214722983120313C21403108D
:10232000400DC400410DC500C001C1010530C3000E
:10233000831203134508C1074408C0070318C10AE4
:10234000C30B98293030BF023F08C0070318C10AE9
:10235000BE0A722983120313421472298313831253
:1023600003133C0884003E088000C21CBF2983136D
:102370003D08840040088000840A41088000031062
:1023800083120313C2180314080083120313B50148
:10239000B6013108BC003330BD0067210318D229D3
:1023A00003100800831203133308C1003408C2006D
:1023B000C3018A15CE218A11831203134108B70085
:1023C0004208B8004308B9008313310884000008AC
:1023D000BA0090303A078400831700082E3A031D94
:1023E0004F2A831331088400800A83133108840044
:1023F0000008BB003108BC003530BD006721031C5C
:102400004F2A831203133508C1003608C200C301E6
:102410008A15CE218A11831203134108BC00420899
:10242000BD004308BE008313310884003B0800024E
:10243000BB0083120313BB080319362A3C08C100F2
:102440003D08C2003E08C300C4012030C5008230F0
:10245000C6008A1569208A11831203134108BC0043
:102460004208BD004308BE00BB03192A83120313B0
:102470003708C1003808C2003908C3003C08C4004E
:102480003D08C5003E08C6008A15FC208A1183124B
:1024900003134108B7004208B8004308B90083138A
:1024A000831203133208840037088000840A380836
:1024B0008000840A39088000031408008312031383
:1024C000B300B501B601B40183120313B41B6C2A27
:1024D000193034020318A72A83120313B701B80175
:1024E00083169F171F109F101F159F118312331CF7
:1024F0009F1133189F15B31C1F12B3181F16331DDD
:102500009F1233199F161F139F171F140130152197
:10251000831203131F15831203131F198B2A8312AF
:1025200003131E08B800B70183161E088312B704F0
:102530001F1083161F109F141F159F118312380838
:10254000B6073708B5070318B60AB40A642A831217
:1025500003133508B8003608B900BA011030B700C7
:1025600083120313B80DB90DBA0D0318BB2A193025
:102570003A02031CC02A193083120313BA0203144F
:1025800083120313B50DB60DB70BB02A350808003A
:102590008316031320082106031DD02A0310080008
:1025A00003140800C822031CE82A10308316031302
:1025B00021078400831700088312A7008316A10A4D
:1025C0003C3021020318A1018312031327080800DD
:1025D000003483120313A4008316200A8312A5007B
:1025E0003C3025020318A501831203132508831626
:1025F0002106031DFD2A0310080010308316031363
:10260000200784008317831224088000250883167E
:10261000A000031408008316031336083706031DB1
:10262000132B03100800031408000B23031C2B2B8F
:10263000A230831603133707840083130008831224
:10264000A3008316B70A143037020318B7018312A8
:10265000031323080800003483120313BA008316FF
:10266000360A8312BB0014303B020318BB018312ED
:1026700003133B0883163706031D402B0310080085
:10268000A2308316031336078400831383123A089B
:1026900080003B088316B6000C1E0C1603140800BD
:1026A000831203133408BB003508BC00BD01BE0112
:1026B0001030BA0083120313BB0DBC0DBD0DBE0D4F
:1026C00003303E02031C732B031D6A2BE8303D02CE
:1026D000031C732B033083120313BE02E830BD02C8
:1026E000031CBE03031483120313B60DB70DBA0BFC
:1026F0005A2B3608BB003708BC001030BA00031054
:1027000083120313B80DB90DBB0DBC0D031C8E2B2A
:102710000330B907E830B8070318B90A8312031366
:10272000BA0B7F2B303036072C2383120313390862
:10273000B5023808B402031CB5033408BB003508E1
:10274000BC00BD011030BA0083120313BB0DBC0DD9
:10275000BD0D0318AF2B64303D02031CB42B643055
:1027600083120313BD02031483120313B60DB70DB6
:10277000BA0BA42B6430BB00B8010830BA000310B8
:1027800083120313B80DB90DBB0D031CCD2B3708F5
:10279000B9073608B8070318B90A83120313BA0B2E
:1027A000BF2B303036072C23831203133908B502B0
:1027B0003808B402031CB5033408BB003508BC005C
:1027C000BD011030BA0083120313BB0DBC0DBD0D4B
:1027D0000318EE2B0A303D02031CF32B0A30831240
:1027E0000313BD02031483120313B60DB70DBA0B06
:1027F000E32B0A30BA00B801B9018312031337087A
:10280000B9073608B8070318B90ABA0BFD2B3030E0
:1028100036072C23831203133908B5023808B40293
:10282000031CB503303034072C2B2B3083120313D9
:10283000AF00AE1F222CAE09AD09AD0A0319AE0AD6
:102840002D30AF00831203132F082C2383120313A0
:102850002D08B4002E08B500502B83120313300846
:102860000319372CAF1F372CAE01AF01B001831213
:1028700003132E08C1002F08C2003008C3008A15B8
:102880001E228A11831203134108B4004208B500C6
:1028900050232E302C23831203132E08C1002F083F
:1028A000C2003008C3008A151E228A118312031346
:1028B000C3018A15CE218A11831203134108B10086
:1028C0004208B2004308B3002E08C1002F08C2001E
:1028D0003008C3003108C4003208C5003308C60000
:1028E0008A15C5218A11831203134108AE004208DC
:1028F000AF004308B0002E08C1002F08C200300806
:10290000C3004030C4001C30C5008C30C6008A159E
:1029100000208A11831203134108AE004208AF0061
:102920004308B0002E08C1002F08C2003008C300C1
:102930008A151E228A11831203134108B40042082B
:10294000B500502B831203132E08B2002F08B300DA
:102950000020003A0319C02C831203132E08B20082
:102960002F08B30000202C23831203133010031808
:102970003014AE0A0319AF0A3018A22C0310080055
:10298000031408003F302C233E302C230D302C2321
:102990000A302C2B83160313B601B70108008316E7
:0829A0000313A001A1010800CE
:1029A80083120313B800380803178D0083168C139D
:1029B8000C1483120C08080083120313B500350A9F
:1029C800D42483120313B600B7013608B700B60142
:1029D8003508D42483120313B6070318B70A360838
:1029E800080083120313A6002608D42483120313B5
:1029F800A700260AD42483120313A800023026074E
:102A0800D42483120313A9002708AA002808AB00BE
:102A18002908AC002A08080083120313B6003508F9
:102A280003178D000313360803178C0083168C13C5
:102A38000C158B1355308D00AA308D008C148B1714
:102A48000C11831603178C18252D08008312031305
:102A58003208B50033081025831203133408B30075
:102A6800B401320AB5003308102D31308312031334
:102A7800B4003008B500831334088400000810251A
:102A880083120313300AB500340A84008313000844
:102A980010250230831203133007B50002303407C3
:102AA800840083130008102D83120313B601B701A5
:102AB800B501243083120313350203186D2D350830
:102AC800D424831203133507B6070318B70AB50AC7
:102AD8005D2D83120313360808005825831203134B
:102AE8003608B0003708B100FE30B2003008B30035
:102AF8003108B4002A2DFE30E0248312031336086F
:102B0800B0003708B1005825831203133608B20005
:102B18003708B30030083206031D982D31083306F4
:102B2800031D982D03140800031008007F250318BF
:102B3800122E8A15B1238A11253083120313B0008F
:102B4800B1018A152B258A1128308A15A8238A11E4
:102B5800323083120313B000B1018A152B258A1174
:102B6800DD3083120313D3006D30D4007F30D500DD
:102B78000830D600D701C730D8001130D9008130CD
:102B8800DA000D30DB00DC01DD01DE016430DF003E
:102B9800E0014C30E1000430E200DC30E3000530B5
:102BA800E4000830E5000730E600D030E7000730E1
:102BB800E800C330F1003130F2008230F300143005
:102BC800F4000E30F5008130F6001F30F700553064
:102BD800F8008030F9001430FA000E30FB00803025
:102BE800FC001430FD000E30FE007F30FF00A6010F
:102BF800A701831203132708031D0E2EC8302602CF
:102C080003180E2E6430152183120313A60A031924
:102C1800A70AFD2D8A15B1238A11982E0030F524B4
:102C2800831203132A08D3002B08D4002C08D500DC
:102C38000330E024831203133608D6003708D70080
:102C48000530F524831203132A08D8002B08D9006D
:102C58002C08DA000830E024831203133608DB005E
:102C68003708DC000A30E024831203133608DD003D
:102C78003708DE000B30E024831203133608DF0028
:102C88003708E0000D30E024831203133608E10012
:102C98003708E2000F30E024831203133608E300FC
:102CA8003708E4001130E024831203133608E500E6
:102CB8003708E6001330E024831203133608E700D0
:102CC8003708E8001530F524831203132A08F100A9
:102CD8002B08F2002C08F3001830F5248312031394
:102CE8002A08F4002B08F5002C08F6001B30F52400
:102CF800831203132A08F7002B08F8002C08F900A0
:102D08001E30F524831203132A08FA002B08FB004F
:102D18002C08FC002130F524831203132A08FD0037
:102D28002B08FE002C08FF00080083120313B001D3
:102D38005308B1005408B2005508B30039250330D0
:102D480083120313B2005608B3005708B4002A25AB
:102D5800053083120313B0005808B1005908B200B7
:102D68005A08B3003925083083120313B2005B08F0
:102D7800B3005C08B4002A250A3083120313B2009A
:102D88005D08B3005E08B4002A250B3083120313D4
:102D9800B2005F08B3006008B4002A250D30831222
:102DA8000313B2006108B3006208B4002A250F308B
:102DB80083120313B2006308B3006408B4002A2521
:102DC800113083120313B2006508B3006608B4001B
:102DD8002A25133083120313B2006708B30068086A
:102DE800B4002A25153083120313B0007108B1000E
:102DF8007208B2007308B300392518308312031320
:102E0800B0007408B1007508B2007608B30039251F
:102E18001B3083120313B0007708B1007808B200A2
:102E28007908B30039251E3083120313B0007A08DD
:102E3800B1007B08B2007C08B30039252130831229
:102E48000313B0007D08B1007E08B2007F08B3000C
:062E5800392571257F2DD4
:10300000831203134208C8004506C9004308031D84
:1030100046080319532883120313C3077E30031C89
:103020001528C302031C1A28572883120313C3024E
:10303000031C5028831203134108C700C817C51783
:10304000C101C2011030CA0083120313C80CC70C9F
:10305000031C30284408C10745080318450FC20760
:1030600083120313C20CC10CCA0B2428C21B4128B3
:10307000C10DC20DC3080319502883120313C303E3
:10308000480D831203136D1F6128031C6128C10FB3
:103090006128C20F6128C20CC10CC30F61285728D8
:1030A000831203136D1583120313C3015C2883126B
:1030B0000313ED14FF30C30083120313C1018030EA
:1030C000C20083120313C91FC213831203134108E2
:1030D0000800831203134208C8004506C9004608C9
:1030E0000319DD2883120313C3080319E42883128C
:1030F00003134608C3027F3003188228C30703184E
:103100008728E12883120313C3070318E8288312D2
:1031100003134108C700C817C5171030CA00C10102
:10312000C2019F288312031344084702031CB028DE
:1031300083120313C700C801AF280318A7288312FE
:1031400003134508480203199228031CB028831270
:1031500003134408C7024508031C450FC8020314A3
:1031600083120313C10DC20DC70DC80DCA0B9D28D4
:10317000C21BC228C3080319E12883120313C30327
:10318000CA0A9D28831203136D1FF4280318D2283E
:10319000831203134408C7024508031C450FC802E5
:1031A000031CF42883120313C10FF428C20FF42860
:1031B000C20CC10CC30FF428E82883120313ED15C9
:1031C000EB28831203136D1583120313C301EF2839
:1031D00083120313ED14FF3083120313C300831211
:1031E0000313C1018030C20083120313C91FC2132D
:1031F0008312031341080800831203134608430295
:10320000C90003181729C909C90A4308C800460894
:10321000C3004808C6004208C8004508C200480864
:10322000C5004108C8004408C1004808C400123065
:103230008312031349020318C12983120313C6081A
:103240000319C12983120313C7014208C8004208A9
:103250004506CA00C217C517083083120313C902F6
:10326000031C3A29831203134408C7004508C4000D
:10327000C5012C2983120313C90703194729031019
:1032800083120313C50CC40CC70CC90B3F2983124E
:103290000313CA1F8E294408C1024508031C450FA9
:1032A000C20203185A29C209C109C10A0319C20A74
:1032B0008030C80683120313C709C70A031964299B
:1032C000C103410A0319C203033083120313C90067
:1032D00083120313C208031D7B294108C20047085B
:1032E000C100C7010830C302031CAF2983120313B6
:1032F000C90B6829AF2983120313C21B8629031047
:10330000C70DC10DC20DC30B7B29AF298312031357
:103310006D1FBD29C71FBD29C701A629831203132D
:103320004408C10745080318450FC207031CA0291C
:1033300083120313C20CC10CC70CC30A0319B329AF
:10334000831203136D1FBD29C71FBD2983120313E9
:10335000C10FBD29C20FBD29031441109829831242
:103360000313C301B82983120313ED14FF30C30004
:1033700083120313C1018030C20083120313C81FDC
:10338000C213831203134108080080308312031311
:10339000C506FC2083120313410808008E308312F7
:1033A0000313C700C801C901C31FE129C309C2092A
:1033B000C109C10FDE29C20A0319C30A831203130C
:1033C000C91783120313C3080319EF290830C7076D
:1033D0004108C8004208C1004308C200042A831201
:1033E0000313C208031D042A0830C7024108031949
:1033F0001A2A83120313C200C101042A8312031381
:10340000C80DC10DC20DC70383120313C21FFE29CD
:103410006D1F142AC81F142AC10F142AC20F142AA0
:103420000314C20CC10CC70A831203134708C3005C
:10343000C91FC21383120313410808008312031328
:103440004208C7007E304302C800031C602A831272
:103450000313C217C301C9014808103CC800031870
:103460003D2A0830C807031C5B2A83120313420855
:10347000C3004108C200C101492A08308312031366
:103480004802031C492AC8004108C9004208C1007B
:10349000C20183120313C8080319572A03108312A9
:1034A0000313C30CC20CC10CC90CC80B4E2A8312E7
:1034B0000313C31F682A83120313ED14FF30612A1C
:1034C000000183120313C100C200C300C3137D2A8D
:1034D000831203136D1F712AC91F712AC10A0319B0
:1034E000C20A83120313C71F7D2AC309C209C10977
:1034F000C10F7D2AC20A0319C30A831203134108AC
:023500000800C1
:103502008312031334086002031C922A031D8D2ABE
:1035120033085F02031C922A83120313BD01BE010A
:103522001F2B8312031368083402031CA52A031DF0
:103532009E2A67083302031CA52A683083120313EC
:10354200BD000130BE001F2B83120313B5010530ED
:103552008312031335020318C62A0310350D5F3E8A
:10356200840083130008B800840A0008B9003908EF
:103572003402031CC62A031DC22A38083302031C64
:10358200C62A83120313B50AA82A83120313B503AA
:103592000310350D5F3E840083130008B800840ACF
:1035A2000008B9000310350D3507713E84008313FE
:1035B2000008BA00840A0008BB00840A0008BC00A4
:1035C20039083402BE0038083302BD00031CBE03B2
:1035D2003D08C1003E08C200C301CE21831203137D
:1035E2003A08C4003B08C5003C08C60069201E22F8
:1035F200831203134108BD004208BE003508B6001D
:10360200B7015A30C200BF010830C1000310831253
:103612000313BF0DC00DC20D031C152B3708C007C5
:103622003608BF070318C00A83120313C10B072B06
:103632004008BE073F08BD070318BE0A83120313E2
:103642003D08080083120313B9000310B90D0310DB
:10365200B90D8610C33083168500831239088500A0
:1036620006150000000006118614FF30831685003F
:1036720008008312031386140615000000000508D3
:10368200BB0006110310BB0D0310BB0DF030BB05D0
:103692000615000000000508BC0006110310BC0C52
:1036A2000310BC0C0F30BC053C08BB043B080800EF
:1036B200831203134E1D832B8A1128218A1583122C
:1036C20003133D08B9003E08BA003A2380390319B2
:1036D200832B8A1128218A15831203133A083E028A
:1036E200BC0039083D02BB00031CBC033C08031D9F
:1036F2007E2B06303B02031C662B831203134E11F2
:10370200031008000314080083120313B8004E1DAF
:10371200962B06105923831203130614380E0F3901
:103722002323831203133808232B08008312031365
:10373200B1004E1DA72B0610592383120313310E1D
:103742000F392323831203133108232B080083121A
:103752000313B0004E1DB02B80303004972B0800AD
:10376200831203134E1DB72B0130972B08008312CF
:1037720003134E15EB01EC010611061096308A1167
:1037820015218A150330232332308A1115218A1517
:103792000330232302308A1115218A150330232393
:1037A20002308A1115218A150230232302308A1130
:1037B20015218A1528309723083097230130972343
:1037C200063097230F30972B83120313B700370865
:1037D200852B83120313B2004E1D102D3008B80042
:1037E2003108B900BA01BB011030B70083120313CC
:1037F200B80DB90DBA0DBB0D03303B02031C102CE2
:10380200031D072CE8303A02031C102C03308312EC
:103812000313BB02E830BA02031CBB030314831276
:103822000313B30DB40DB70BF72B3308B8003408EC
:10383200B9001030B700031083120313B50DB60D93
:10384200B80DB90D031C2B2C0330B607E830B507B1
:103852000318B60A83120313B70B1C2C053032026D
:10386200031C362C30303307E5238312031336084A
:10387200B1023508B002031CB1033008B8003108A8
:10388200B900BA01BB011030B70083120313B80D9F
:10389200B90DBA0DBB0D03303B02031C5F2C031D97
:1038A200562CE8303A02031C5F2C033083120313B8
:1038B200BB02E830BA02031CBB03031483120313D6
:1038C200B30DB40DB70B462C3308B8003408B90059
:1038D2001030B700031083120313B50DB60DB80DE7
:1038E200B90D031C7A2C0330B607E830B50703186C
:1038F200B60A83120313B70B6B2C04303202031C7B
:10390200852C30303307E523831203133608B102C6
:103912003508B002031CB1033008B8003108B90001
:10392200BA011030B70083120313B80DB90DBA0DE6
:1039320003189F2C64303A02031CA42C64308312B7
:103942000313BA02031483120313B30DB40DB70B9E
:10395200942C6430B800B5010830B700031083120C
:103962000313B50DB60DB80D031CBD2C3408B607F4
:103972003308B5070318B60A83120313B70BAF2C2B
:1039820003303202031CC82C30303307E523831284
:1039920003133608B1023508B002031CB103300824
:1039A200B8003108B900BA011030B700831203130E
:1039B200B80DB90DBA0D0318E22C0A303A02031CF5
:1039C200E72C0A3083120313BA020314831203137F
:1039D200B30DB40DB70BD72C0A30B700B501B60141
:1039E200831203133408B6073308B5070318B60A5F
:1039F200B70BF12C02303202031C022D3030330798
:103A0200E523831203133608B1023508B002031C02
:103A1200B103B2080319102D30303007E52B08002E
:103A220083120313AE002B30AF00AD1F1F2DAD0963
:103A3200AC09AC0A0319AD0A2D30AF00831203138F
:103A42002F08E523831203132C08B0002D08B100C0
:103A52002E08EA2B831203134E1D4B2D83120313E0
:103A62003008B2003108B3008A1100208A15003AEA
:103A720003194B2D831203133008B2003108B3002F
:103A82008A1100208A15E52383120313B00A031951
:103A9200B10A2F2D0800831203134E1D7B2DDD1C4E
:103AA200732DAB1B5B2D2B08031D672DB4302A022F
:103AB2000318672D831203132B08AD00B4302A07B5
:103AC200AC000318AD0A033011257B2D83120313BA
:103AD2002B08AD00B4302A02AC00031CAD03033046
:103AE20011257B2D831203132A08AC002B08AD008D
:103AF2000330112D0800831203134E1DA52DB1238F
:103B020083120313B001B1012B252830A8230C30F6
:103B120083120313B000B1012B2583120313A601F4
:103B2200A701831203132708031DB12BC8302602F5
:103B32000318B12B64308A1115218A1583120313DD
:103B4200A60A0319A70A922D08008A1128218A15AC
:103B5200831203133D08A6003E08A7006C08A702C3
:103B62006B08A602031CA7034E1D452E2708031D42
:103B7200BE2DC9302602031C452E831203132708CB
:103B8200EC072608EB070318EC0A0030A8231A30CA
:103B920083120313B000B1012B2500308A115E227B
:103BA2008A15831203133508A8003608A9002808CD
:103BB200B3002908B4008122831203133D08A80030
:103BC2003E08A9002808AA002908AB004C25DF30CE
:103BD200E523223083120313B000B1012B25831297
:103BE20003134F08AA005008AB004C25DF30E52331
:103BF2002930E5232830A8231E3083120313B00096
:103C0200B1012B2501308A115E228A15831203131A
:103C12003508A8003608A9005C08A9025B08A802BA
:103C2200031CA9032808C1002908C200C301C21B42
:103C3200C303CE21831203135808C4005908C500D8
:103C42005A08C60069201E22831203134108A800E5
:103C52004208A9002808AC002908AD00033011254C
:103C6200DF30E523223083120313B000B1012B258C
:103C7200831203135108AC005208AD000330112522
:0E3C8200DF30E5232930E5238A110A12252FB1
:02400E00313F40
:00000001FF
